{
  "_format": "hh-sol-artifact-1",
  "contractName": "SignerManager",
  "sourceName": "@divergencetech/ethier/contracts/crypto/SignerManager.sol",
  "abi": [
    {
      "anonymous": false,
      "inputs": [
        {
          "indexed": true,
          "internalType": "address",
          "name": "previousOwner",
          "type": "address"
        },
        {
          "indexed": true,
          "internalType": "address",
          "name": "newOwner",
          "type": "address"
        }
      ],
      "name": "OwnershipTransferred",
      "type": "event"
    },
    {
      "inputs": [
        {
          "internalType": "address",
          "name": "signer",
          "type": "address"
        }
      ],
      "name": "addSigner",
      "outputs": [],
      "stateMutability": "nonpayable",
      "type": "function"
    },
    {
      "inputs": [],
      "name": "owner",
      "outputs": [
        {
          "internalType": "address",
          "name": "",
          "type": "address"
        }
      ],
      "stateMutability": "view",
      "type": "function"
    },
    {
      "inputs": [
        {
          "internalType": "address",
          "name": "signer",
          "type": "address"
        }
      ],
      "name": "removeSigner",
      "outputs": [],
      "stateMutability": "nonpayable",
      "type": "function"
    },
    {
      "inputs": [],
      "name": "renounceOwnership",
      "outputs": [],
      "stateMutability": "nonpayable",
      "type": "function"
    },
    {
      "inputs": [
        {
          "internalType": "address",
          "name": "newOwner",
          "type": "address"
        }
      ],
      "name": "transferOwnership",
      "outputs": [],
      "stateMutability": "nonpayable",
      "type": "function"
    }
  ],
  "bytecode": "0x608060405234801561001057600080fd5b5061002d61002261003260201b60201c565b61003a60201b60201c565b6100fe565b600033905090565b60008060009054906101000a900473ffffffffffffffffffffffffffffffffffffffff169050816000806101000a81548173ffffffffffffffffffffffffffffffffffffffff021916908373ffffffffffffffffffffffffffffffffffffffff1602179055508173ffffffffffffffffffffffffffffffffffffffff168173ffffffffffffffffffffffffffffffffffffffff167f8be0079c531659141344cd1fd0a4f28419497f9722a3daafe3b4186f6b6457e060405160405180910390a35050565b6107f38061010d6000396000f3fe608060405234801561001057600080fd5b50600436106100575760003560e01c80630e316ab71461005c578063715018a6146100785780638da5cb5b14610082578063eb12d61e146100a0578063f2fde38b146100bc575b600080fd5b6100766004803603810190610071919061058c565b6100d8565b005b6100806100f8565b005b61008a61010c565b60405161009791906105c8565b60405180910390f35b6100ba60048036038101906100b5919061058c565b610135565b005b6100d660048036038101906100d1919061058c565b610155565b005b6100e06101d8565b6100f481600161025690919063ffffffff16565b5050565b6101006101d8565b61010a6000610286565b565b60008060009054906101000a900473ffffffffffffffffffffffffffffffffffffffff16905090565b61013d6101d8565b61015181600161034a90919063ffffffff16565b5050565b61015d6101d8565b600073ffffffffffffffffffffffffffffffffffffffff168173ffffffffffffffffffffffffffffffffffffffff16036101cc576040517f08c379a00000000000000000000000000000000000000000000000000000000081526004016101c390610666565b60405180910390fd5b6101d581610286565b50565b6101e061037a565b73ffffffffffffffffffffffffffffffffffffffff166101fe61010c565b73ffffffffffffffffffffffffffffffffffffffff1614610254576040517f08c379a000000000000000000000000000000000000000000000000000000000815260040161024b906106d2565b60405180910390fd5b565b600061027e836000018373ffffffffffffffffffffffffffffffffffffffff1660001b610382565b905092915050565b60008060009054906101000a900473ffffffffffffffffffffffffffffffffffffffff169050816000806101000a81548173ffffffffffffffffffffffffffffffffffffffff021916908373ffffffffffffffffffffffffffffffffffffffff1602179055508173ffffffffffffffffffffffffffffffffffffffff168173ffffffffffffffffffffffffffffffffffffffff167f8be0079c531659141344cd1fd0a4f28419497f9722a3daafe3b4186f6b6457e060405160405180910390a35050565b6000610372836000018373ffffffffffffffffffffffffffffffffffffffff1660001b610496565b905092915050565b600033905090565b6000808360010160008481526020019081526020016000205490506000811461048a5760006001826103b4919061072b565b90506000600186600001805490506103cc919061072b565b905081811461043b5760008660000182815481106103ed576103ec61075f565b5b90600052602060002001549050808760000184815481106104115761041061075f565b5b90600052602060002001819055508387600101600083815260200190815260200160002081905550505b8560000180548061044f5761044e61078e565b5b600190038181906000526020600020016000905590558560010160008681526020019081526020016000206000905560019350505050610490565b60009150505b92915050565b60006104a28383610506565b6104fb578260000182908060018154018082558091505060019003906000526020600020016000909190919091505582600001805490508360010160008481526020019081526020016000208190555060019050610500565b600090505b92915050565b600080836001016000848152602001908152602001600020541415905092915050565b600080fd5b600073ffffffffffffffffffffffffffffffffffffffff82169050919050565b60006105598261052e565b9050919050565b6105698161054e565b811461057457600080fd5b50565b60008135905061058681610560565b92915050565b6000602082840312156105a2576105a1610529565b5b60006105b084828501610577565b91505092915050565b6105c28161054e565b82525050565b60006020820190506105dd60008301846105b9565b92915050565b600082825260208201905092915050565b7f4f776e61626c653a206e6577206f776e657220697320746865207a65726f206160008201527f6464726573730000000000000000000000000000000000000000000000000000602082015250565b60006106506026836105e3565b915061065b826105f4565b604082019050919050565b6000602082019050818103600083015261067f81610643565b9050919050565b7f4f776e61626c653a2063616c6c6572206973206e6f7420746865206f776e6572600082015250565b60006106bc6020836105e3565b91506106c782610686565b602082019050919050565b600060208201905081810360008301526106eb816106af565b9050919050565b6000819050919050565b7f4e487b7100000000000000000000000000000000000000000000000000000000600052601160045260246000fd5b6000610736826106f2565b9150610741836106f2565b925082821015610754576107536106fc565b5b828203905092915050565b7f4e487b7100000000000000000000000000000000000000000000000000000000600052603260045260246000fd5b7f4e487b7100000000000000000000000000000000000000000000000000000000600052603160045260246000fdfea26469706673582212206936ca5d233b402e98c25c493449ab443315a0d119d402b2385cff21d9b582c064736f6c634300080d0033",
  "linkReferences": {},
  "deployedLinkReferences": {}
}