{
  "_format": "hh-sol-artifact-1",
  "contractName": "Claim",
  "sourceName": "contracts/Claim.sol",
  "abi": [
    {
      "inputs": [
        {
          "internalType": "address",
          "name": "_tokenAddress",
          "type": "address"
        },
        {
          "internalType": "uint256",
          "name": "_maxDailyClaim",
          "type": "uint256"
        }
      ],
      "stateMutability": "nonpayable",
      "type": "constructor"
    },
    {
      "inputs": [],
      "name": "Claim_Contract_Does_Not_Have_Enough_Tokens",
      "type": "error"
    },
    {
      "inputs": [],
      "name": "Claim_Exceeded_Daily_Claiming_Limit",
      "type": "error"
    },
    {
      "anonymous": false,
      "inputs": [
        {
          "indexed": true,
          "internalType": "address",
          "name": "previousOwner",
          "type": "address"
        },
        {
          "indexed": true,
          "internalType": "address",
          "name": "newOwner",
          "type": "address"
        }
      ],
      "name": "OwnershipTransferred",
      "type": "event"
    },
    {
      "inputs": [
        {
          "internalType": "address",
          "name": "signer",
          "type": "address"
        }
      ],
      "name": "addSigner",
      "outputs": [],
      "stateMutability": "nonpayable",
      "type": "function"
    },
    {
      "inputs": [
        {
          "internalType": "bytes32",
          "name": "_nonce",
          "type": "bytes32"
        },
        {
          "internalType": "bytes",
          "name": "_data",
          "type": "bytes"
        },
        {
          "internalType": "bytes",
          "name": "_signature",
          "type": "bytes"
        }
      ],
      "name": "claimToken",
      "outputs": [],
      "stateMutability": "nonpayable",
      "type": "function"
    },
    {
      "inputs": [],
      "name": "maxDailyClaim",
      "outputs": [
        {
          "internalType": "uint256",
          "name": "",
          "type": "uint256"
        }
      ],
      "stateMutability": "view",
      "type": "function"
    },
    {
      "inputs": [],
      "name": "owner",
      "outputs": [
        {
          "internalType": "address",
          "name": "",
          "type": "address"
        }
      ],
      "stateMutability": "view",
      "type": "function"
    },
    {
      "inputs": [
        {
          "internalType": "address",
          "name": "signer",
          "type": "address"
        }
      ],
      "name": "removeSigner",
      "outputs": [],
      "stateMutability": "nonpayable",
      "type": "function"
    },
    {
      "inputs": [],
      "name": "renounceOwnership",
      "outputs": [],
      "stateMutability": "nonpayable",
      "type": "function"
    },
    {
      "inputs": [
        {
          "internalType": "uint256",
          "name": "_maxDailyClaim",
          "type": "uint256"
        }
      ],
      "name": "setMaxDailyClaim",
      "outputs": [],
      "stateMutability": "nonpayable",
      "type": "function"
    },
    {
      "inputs": [],
      "name": "token",
      "outputs": [
        {
          "internalType": "contract IERC20",
          "name": "",
          "type": "address"
        }
      ],
      "stateMutability": "view",
      "type": "function"
    },
    {
      "inputs": [
        {
          "internalType": "address",
          "name": "newOwner",
          "type": "address"
        }
      ],
      "name": "transferOwnership",
      "outputs": [],
      "stateMutability": "nonpayable",
      "type": "function"
    },
    {
      "inputs": [
        {
          "internalType": "address",
          "name": "_recipient",
          "type": "address"
        },
        {
          "internalType": "uint256",
          "name": "_amount",
          "type": "uint256"
        }
      ],
      "name": "withdrawToken",
      "outputs": [],
      "stateMutability": "nonpayable",
      "type": "function"
    }
  ],
  "bytecode": "0x60806040523480156200001157600080fd5b50604051620025c0380380620025c0833981810160405281019062000037919062000229565b60016000819055506200005f62000053620000b660201b60201c565b620000be60201b60201c565b81600560006101000a81548173ffffffffffffffffffffffffffffffffffffffff021916908373ffffffffffffffffffffffffffffffffffffffff1602179055504260088190555080600681905550505062000270565b600033905090565b6000600160009054906101000a900473ffffffffffffffffffffffffffffffffffffffff16905081600160006101000a81548173ffffffffffffffffffffffffffffffffffffffff021916908373ffffffffffffffffffffffffffffffffffffffff1602179055508173ffffffffffffffffffffffffffffffffffffffff168173ffffffffffffffffffffffffffffffffffffffff167f8be0079c531659141344cd1fd0a4f28419497f9722a3daafe3b4186f6b6457e060405160405180910390a35050565b600080fd5b600073ffffffffffffffffffffffffffffffffffffffff82169050919050565b6000620001b68262000189565b9050919050565b620001c881620001a9565b8114620001d457600080fd5b50565b600081519050620001e881620001bd565b92915050565b6000819050919050565b6200020381620001ee565b81146200020f57600080fd5b50565b6000815190506200022381620001f8565b92915050565b6000806040838503121562000243576200024262000184565b5b60006200025385828601620001d7565b9250506020620002668582860162000212565b9150509250929050565b61234080620002806000396000f3fe608060405234801561001057600080fd5b506004361061009e5760003560e01c806396e09b711161006657806396e09b71146101215780639e281a981461013d578063eb12d61e14610159578063f2fde38b14610175578063fc0c546a146101915761009e565b8063054a1bcd146100a35780630e316ab7146100c1578063715018a6146100dd5780637aee389b146100e75780638da5cb5b14610103575b600080fd5b6100ab6101af565b6040516100b891906113e4565b60405180910390f35b6100db60048036038101906100d69190611471565b6101b5565b005b6100e56101d5565b005b61010160048036038101906100fc919061167a565b6101e9565b005b61010b61040a565b6040516101189190611719565b60405180910390f35b61013b60048036038101906101369190611760565b610434565b005b6101576004803603810190610152919061178d565b610446565b005b610173600480360381019061016e9190611471565b610574565b005b61018f600480360381019061018a9190611471565b610594565b005b610199610617565b6040516101a6919061182c565b60405180910390f35b60065481565b6101bd61063d565b6101d18160026106bb90919063ffffffff16565b5050565b6101dd61063d565b6101e760006106eb565b565b6101f16107b1565b600042905080620151806008546102089190611876565b101561021e576000600781905550806008819055505b61025a8486604051602001610234929190611967565b60405160208183030381529060405284846004600261080090949392919063ffffffff16565b6000808580602001905181019061027191906119e2565b91509150600654826007546102869190611876565b11156102be576040517f9b01268b00000000000000000000000000000000000000000000000000000000815260040160405180910390fd5b81600560009054906101000a900473ffffffffffffffffffffffffffffffffffffffff1673ffffffffffffffffffffffffffffffffffffffff166370a08231306040518263ffffffff1660e01b815260040161031a9190611719565b602060405180830381865afa158015610337573d6000803e3d6000fd5b505050506040513d601f19601f8201168201806040525081019061035b9190611a22565b1015610393576040517ffcb0d13700000000000000000000000000000000000000000000000000000000815260040160405180910390fd5b81600760008282546103a59190611876565b925050819055506103f98183600560009054906101000a900473ffffffffffffffffffffffffffffffffffffffff1673ffffffffffffffffffffffffffffffffffffffff166108ac9092919063ffffffff16565b505050610404610932565b50505050565b6000600160009054906101000a900473ffffffffffffffffffffffffffffffffffffffff16905090565b61043c61063d565b8060068190555050565b61044e61063d565b80600560009054906101000a900473ffffffffffffffffffffffffffffffffffffffff1673ffffffffffffffffffffffffffffffffffffffff166370a08231306040518263ffffffff1660e01b81526004016104aa9190611719565b602060405180830381865afa1580156104c7573d6000803e3d6000fd5b505050506040513d601f19601f820116820180604052508101906104eb9190611a22565b1015610523576040517ffcb0d13700000000000000000000000000000000000000000000000000000000815260040160405180910390fd5b6105708282600560009054906101000a900473ffffffffffffffffffffffffffffffffffffffff1673ffffffffffffffffffffffffffffffffffffffff166108ac9092919063ffffffff16565b5050565b61057c61063d565b61059081600261093c90919063ffffffff16565b5050565b61059c61063d565b600073ffffffffffffffffffffffffffffffffffffffff168173ffffffffffffffffffffffffffffffffffffffff160361060b576040517f08c379a000000000000000000000000000000000000000000000000000000000815260040161060290611ad2565b60405180910390fd5b610614816106eb565b50565b600560009054906101000a900473ffffffffffffffffffffffffffffffffffffffff1681565b61064561096c565b73ffffffffffffffffffffffffffffffffffffffff1661066361040a565b73ffffffffffffffffffffffffffffffffffffffff16146106b9576040517f08c379a00000000000000000000000000000000000000000000000000000000081526004016106b090611b3e565b60405180910390fd5b565b60006106e3836000018373ffffffffffffffffffffffffffffffffffffffff1660001b610974565b905092915050565b6000600160009054906101000a900473ffffffffffffffffffffffffffffffffffffffff16905081600160006101000a81548173ffffffffffffffffffffffffffffffffffffffff021916908373ffffffffffffffffffffffffffffffffffffffff1602179055508173ffffffffffffffffffffffffffffffffffffffff168173ffffffffffffffffffffffffffffffffffffffff167f8be0079c531659141344cd1fd0a4f28419497f9722a3daafe3b4186f6b6457e060405160405180910390a35050565b6002600054036107f6576040517f08c379a00000000000000000000000000000000000000000000000000000000081526004016107ed90611baa565b60405180910390fd5b6002600081905550565b600061080b85610a88565b905081600082815260200190815260200160002060009054906101000a900460ff161561086d576040517f08c379a000000000000000000000000000000000000000000000000000000000815260040161086490611c3c565b60405180910390fd5b600182600083815260200190815260200160002060006101000a81548160ff0219169083151502179055506108a486828686610a9a565b505050505050565b61092d8363a9059cbb60e01b84846040516024016108cb929190611c5c565b604051602081830303815290604052907bffffffffffffffffffffffffffffffffffffffffffffffffffffffff19166020820180517bffffffffffffffffffffffffffffffffffffffffffffffffffffffff8381831617835250505050610aeb565b505050565b6001600081905550565b6000610964836000018373ffffffffffffffffffffffffffffffffffffffff1660001b610bb3565b905092915050565b600033905090565b60008083600101600084815260200190815260200160002054905060008114610a7c5760006001826109a69190611c85565b90506000600186600001805490506109be9190611c85565b9050818114610a2d5760008660000182815481106109df576109de611cb9565b5b9060005260206000200154905080876000018481548110610a0357610a02611cb9565b5b90600052602060002001819055508387600101600083815260200190815260200160002081905550505b85600001805480610a4157610a40611ce8565b5b600190038181906000526020600020016000905590558560010160008681526020019081526020016000206000905560019350505050610a82565b60009150505b92915050565b6000610a9382610c23565b9050919050565b610aa684848484610c5e565b610ae5576040517f08c379a0000000000000000000000000000000000000000000000000000000008152600401610adc90611d89565b60405180910390fd5b50505050565b6000610b4d826040518060400160405280602081526020017f5361666545524332303a206c6f772d6c6576656c2063616c6c206661696c65648152508573ffffffffffffffffffffffffffffffffffffffff16610cca9092919063ffffffff16565b9050600081511480610b6f575080806020019051810190610b6e9190611de1565b5b610bae576040517f08c379a0000000000000000000000000000000000000000000000000000000008152600401610ba590611e80565b60405180910390fd5b505050565b6000610bbf8383610ce2565b610c18578260000182908060018154018082558091505060019003906000526020600020016000909190919091505582600001805490508360010160008481526020019081526020016000208190555060019050610c1d565b600090505b92915050565b6000610c2f8251610d05565b82604051602001610c41929190611f33565b604051602081830303815290604052805190602001209050919050565b6000610cc0610cb18585858080601f016020809104026020016040519081016040528093929190818152602001838380828437600081840152601f19601f82011690508083019250505050505050610dd3565b86610dfa90919063ffffffff16565b9050949350505050565b6060610cd98484600085610e2a565b90509392505050565b600080836001016000848152602001908152602001600020541415905092915050565b606060006001610d1484610ef7565b01905060008167ffffffffffffffff811115610d3357610d326114ef565b5b6040519080825280601f01601f191660200182016040528015610d655781602001600182028036833780820191505090505b509050600082602001820190505b600115610dc8578080600190039150507f3031323334353637383961626364656600000000000000000000000000000000600a86061a8153600a8581610dbc57610dbb611f62565b5b04945060008503610d73575b819350505050919050565b6000806000610de2858561104a565b91509150610def8161109b565b819250505092915050565b6000610e22836000018373ffffffffffffffffffffffffffffffffffffffff1660001b610ce2565b905092915050565b606082471015610e6f576040517f08c379a0000000000000000000000000000000000000000000000000000000008152600401610e6690612003565b60405180910390fd5b6000808673ffffffffffffffffffffffffffffffffffffffff168587604051610e989190612023565b60006040518083038185875af1925050503d8060008114610ed5576040519150601f19603f3d011682016040523d82523d6000602084013e610eda565b606091505b5091509150610eeb87838387611201565b92505050949350505050565b600080600090507a184f03e93ff9f4daa797ed6e38ed64bf6a1f0100000000000000008310610f55577a184f03e93ff9f4daa797ed6e38ed64bf6a1f0100000000000000008381610f4b57610f4a611f62565b5b0492506040810190505b6d04ee2d6d415b85acef81000000008310610f92576d04ee2d6d415b85acef81000000008381610f8857610f87611f62565b5b0492506020810190505b662386f26fc100008310610fc157662386f26fc100008381610fb757610fb6611f62565b5b0492506010810190505b6305f5e1008310610fea576305f5e1008381610fe057610fdf611f62565b5b0492506008810190505b612710831061100f57612710838161100557611004611f62565b5b0492506004810190505b60648310611032576064838161102857611027611f62565b5b0492506002810190505b600a8310611041576001810190505b80915050919050565b600080604183510361108b5760008060006020860151925060408601519150606086015160001a905061107f87828585611276565b94509450505050611094565b60006002915091505b9250929050565b600060048111156110af576110ae61203a565b5b8160048111156110c2576110c161203a565b5b03156111fe57600160048111156110dc576110db61203a565b5b8160048111156110ef576110ee61203a565b5b0361112f576040517f08c379a0000000000000000000000000000000000000000000000000000000008152600401611126906120b5565b60405180910390fd5b600260048111156111435761114261203a565b5b8160048111156111565761115561203a565b5b03611196576040517f08c379a000000000000000000000000000000000000000000000000000000000815260040161118d90612121565b60405180910390fd5b600360048111156111aa576111a961203a565b5b8160048111156111bd576111bc61203a565b5b036111fd576040517f08c379a00000000000000000000000000000000000000000000000000000000081526004016111f4906121b3565b60405180910390fd5b5b50565b6060831561126357600083510361125b5761121b85611358565b61125a576040517f08c379a00000000000000000000000000000000000000000000000000000000081526004016112519061221f565b60405180910390fd5b5b82905061126e565b61126d838361137b565b5b949350505050565b6000807f7fffffffffffffffffffffffffffffff5d576e7357a4501ddfe92f46681b20a08360001c11156112b157600060039150915061134f565b6000600187878787604051600081526020016040526040516112d6949392919061226a565b6020604051602081039080840390855afa1580156112f8573d6000803e3d6000fd5b505050602060405103519050600073ffffffffffffffffffffffffffffffffffffffff168173ffffffffffffffffffffffffffffffffffffffff16036113465760006001925092505061134f565b80600092509250505b94509492505050565b6000808273ffffffffffffffffffffffffffffffffffffffff163b119050919050565b60008251111561138e5781518083602001fd5b806040517f08c379a00000000000000000000000000000000000000000000000000000000081526004016113c291906122e8565b60405180910390fd5b6000819050919050565b6113de816113cb565b82525050565b60006020820190506113f960008301846113d5565b92915050565b6000604051905090565b600080fd5b600080fd5b600073ffffffffffffffffffffffffffffffffffffffff82169050919050565b600061143e82611413565b9050919050565b61144e81611433565b811461145957600080fd5b50565b60008135905061146b81611445565b92915050565b60006020828403121561148757611486611409565b5b60006114958482850161145c565b91505092915050565b6000819050919050565b6114b18161149e565b81146114bc57600080fd5b50565b6000813590506114ce816114a8565b92915050565b600080fd5b600080fd5b6000601f19601f8301169050919050565b7f4e487b7100000000000000000000000000000000000000000000000000000000600052604160045260246000fd5b611527826114de565b810181811067ffffffffffffffff82111715611546576115456114ef565b5b80604052505050565b60006115596113ff565b9050611565828261151e565b919050565b600067ffffffffffffffff821115611585576115846114ef565b5b61158e826114de565b9050602081019050919050565b82818337600083830152505050565b60006115bd6115b88461156a565b61154f565b9050828152602081018484840111156115d9576115d86114d9565b5b6115e484828561159b565b509392505050565b600082601f830112611601576116006114d4565b5b81356116118482602086016115aa565b91505092915050565b600080fd5b600080fd5b60008083601f84011261163a576116396114d4565b5b8235905067ffffffffffffffff8111156116575761165661161a565b5b6020830191508360018202830111156116735761167261161f565b5b9250929050565b6000806000806060858703121561169457611693611409565b5b60006116a2878288016114bf565b945050602085013567ffffffffffffffff8111156116c3576116c261140e565b5b6116cf878288016115ec565b935050604085013567ffffffffffffffff8111156116f0576116ef61140e565b5b6116fc87828801611624565b925092505092959194509250565b61171381611433565b82525050565b600060208201905061172e600083018461170a565b92915050565b61173d816113cb565b811461174857600080fd5b50565b60008135905061175a81611734565b92915050565b60006020828403121561177657611775611409565b5b60006117848482850161174b565b91505092915050565b600080604083850312156117a4576117a3611409565b5b60006117b28582860161145c565b92505060206117c38582860161174b565b9150509250929050565b6000819050919050565b60006117f26117ed6117e884611413565b6117cd565b611413565b9050919050565b6000611804826117d7565b9050919050565b6000611816826117f9565b9050919050565b6118268161180b565b82525050565b6000602082019050611841600083018461181d565b92915050565b7f4e487b7100000000000000000000000000000000000000000000000000000000600052601160045260246000fd5b6000611881826113cb565b915061188c836113cb565b9250827fffffffffffffffffffffffffffffffffffffffffffffffffffffffffffffffff038211156118c1576118c0611847565b5b828201905092915050565b600081519050919050565b600081905092915050565b60005b838110156119005780820151818401526020810190506118e5565b8381111561190f576000848401525b50505050565b6000611920826118cc565b61192a81856118d7565b935061193a8185602086016118e2565b80840191505092915050565b6000819050919050565b61196161195c8261149e565b611946565b82525050565b60006119738285611915565b915061197f8284611950565b6020820191508190509392505050565b60008151905061199e81611734565b92915050565b60006119af82611413565b9050919050565b6119bf816119a4565b81146119ca57600080fd5b50565b6000815190506119dc816119b6565b92915050565b600080604083850312156119f9576119f8611409565b5b6000611a078582860161198f565b9250506020611a18858286016119cd565b9150509250929050565b600060208284031215611a3857611a37611409565b5b6000611a468482850161198f565b91505092915050565b600082825260208201905092915050565b7f4f776e61626c653a206e6577206f776e657220697320746865207a65726f206160008201527f6464726573730000000000000000000000000000000000000000000000000000602082015250565b6000611abc602683611a4f565b9150611ac782611a60565b604082019050919050565b60006020820190508181036000830152611aeb81611aaf565b9050919050565b7f4f776e61626c653a2063616c6c6572206973206e6f7420746865206f776e6572600082015250565b6000611b28602083611a4f565b9150611b3382611af2565b602082019050919050565b60006020820190508181036000830152611b5781611b1b565b9050919050565b7f5265656e7472616e637947756172643a207265656e7472616e742063616c6c00600082015250565b6000611b94601f83611a4f565b9150611b9f82611b5e565b602082019050919050565b60006020820190508181036000830152611bc381611b87565b9050919050565b7f5369676e6174757265436865636b65723a204d65737361676520616c7265616460008201527f7920757365640000000000000000000000000000000000000000000000000000602082015250565b6000611c26602683611a4f565b9150611c3182611bca565b604082019050919050565b60006020820190508181036000830152611c5581611c19565b9050919050565b6000604082019050611c71600083018561170a565b611c7e60208301846113d5565b9392505050565b6000611c90826113cb565b9150611c9b836113cb565b925082821015611cae57611cad611847565b5b828203905092915050565b7f4e487b7100000000000000000000000000000000000000000000000000000000600052603260045260246000fd5b7f4e487b7100000000000000000000000000000000000000000000000000000000600052603160045260246000fd5b7f5369676e6174757265436865636b65723a20496e76616c6964207369676e617460008201527f7572650000000000000000000000000000000000000000000000000000000000602082015250565b6000611d73602383611a4f565b9150611d7e82611d17565b604082019050919050565b60006020820190508181036000830152611da281611d66565b9050919050565b60008115159050919050565b611dbe81611da9565b8114611dc957600080fd5b50565b600081519050611ddb81611db5565b92915050565b600060208284031215611df757611df6611409565b5b6000611e0584828501611dcc565b91505092915050565b7f5361666545524332303a204552433230206f7065726174696f6e20646964206e60008201527f6f74207375636365656400000000000000000000000000000000000000000000602082015250565b6000611e6a602a83611a4f565b9150611e7582611e0e565b604082019050919050565b60006020820190508181036000830152611e9981611e5d565b9050919050565b600081905092915050565b7f19457468657265756d205369676e6564204d6573736167653a0a000000000000600082015250565b6000611ee1601a83611ea0565b9150611eec82611eab565b601a82019050919050565b600081519050919050565b6000611f0d82611ef7565b611f178185611ea0565b9350611f278185602086016118e2565b80840191505092915050565b6000611f3e82611ed4565b9150611f4a8285611f02565b9150611f568284611915565b91508190509392505050565b7f4e487b7100000000000000000000000000000000000000000000000000000000600052601260045260246000fd5b7f416464726573733a20696e73756666696369656e742062616c616e636520666f60008201527f722063616c6c0000000000000000000000000000000000000000000000000000602082015250565b6000611fed602683611a4f565b9150611ff882611f91565b604082019050919050565b6000602082019050818103600083015261201c81611fe0565b9050919050565b600061202f8284611915565b915081905092915050565b7f4e487b7100000000000000000000000000000000000000000000000000000000600052602160045260246000fd5b7f45434453413a20696e76616c6964207369676e61747572650000000000000000600082015250565b600061209f601883611a4f565b91506120aa82612069565b602082019050919050565b600060208201905081810360008301526120ce81612092565b9050919050565b7f45434453413a20696e76616c6964207369676e6174757265206c656e67746800600082015250565b600061210b601f83611a4f565b9150612116826120d5565b602082019050919050565b6000602082019050818103600083015261213a816120fe565b9050919050565b7f45434453413a20696e76616c6964207369676e6174757265202773272076616c60008201527f7565000000000000000000000000000000000000000000000000000000000000602082015250565b600061219d602283611a4f565b91506121a882612141565b604082019050919050565b600060208201905081810360008301526121cc81612190565b9050919050565b7f416464726573733a2063616c6c20746f206e6f6e2d636f6e7472616374000000600082015250565b6000612209601d83611a4f565b9150612214826121d3565b602082019050919050565b60006020820190508181036000830152612238816121fc565b9050919050565b6122488161149e565b82525050565b600060ff82169050919050565b6122648161224e565b82525050565b600060808201905061227f600083018761223f565b61228c602083018661225b565b612299604083018561223f565b6122a6606083018461223f565b95945050505050565b60006122ba82611ef7565b6122c48185611a4f565b93506122d48185602086016118e2565b6122dd816114de565b840191505092915050565b6000602082019050818103600083015261230281846122af565b90509291505056fea2646970667358221220867e318b47eefb118f9370a9a2bd46dff0c366dc58463b32a40698af9297e74264736f6c634300080d0033",
  "linkReferences": {},
  "deployedLinkReferences": {}
}